{
  "contractName": "FundraiserFactory",
  "abi": [
    {
      "anonymous": false,
      "inputs": [
        {
          "indexed": true,
          "internalType": "contract Fundraiser",
          "name": "fundraiser",
          "type": "address"
        },
        {
          "indexed": true,
          "internalType": "address",
          "name": "owner",
          "type": "address"
        }
      ],
      "name": "FundraiserCreated",
      "type": "event"
    },
    {
      "inputs": [
        {
          "internalType": "uint256",
          "name": "limit",
          "type": "uint256"
        },
        {
          "internalType": "uint256",
          "name": "offset",
          "type": "uint256"
        }
      ],
      "name": "fundraisers",
      "outputs": [
        {
          "internalType": "contract Fundraiser[]",
          "name": "fundraisers",
          "type": "address[]"
        }
      ],
      "stateMutability": "view",
      "type": "function",
      "constant": true
    },
    {
      "inputs": [],
      "name": "fundraisersCount",
      "outputs": [
        {
          "internalType": "uint256",
          "name": "",
          "type": "uint256"
        }
      ],
      "stateMutability": "view",
      "type": "function",
      "constant": true
    },
    {
      "inputs": [
        {
          "internalType": "string",
          "name": "name",
          "type": "string"
        },
        {
          "internalType": "string",
          "name": "url",
          "type": "string"
        },
        {
          "internalType": "string",
          "name": "imageURL",
          "type": "string"
        },
        {
          "internalType": "string",
          "name": "description",
          "type": "string"
        },
        {
          "internalType": "address payable",
          "name": "beneficiary",
          "type": "address"
        }
      ],
      "name": "createFundraiser",
      "outputs": [],
      "stateMutability": "nonpayable",
      "type": "function"
    }
  ],
  "bytecode": "0x608060405234801561001057600080fd5b50612320806100206000396000f3fe60806040523480156200001157600080fd5b5060043610620000465760003560e01c806311d752ad146200004b578063704914f814620002fa5780639d3b4355146200038c575b600080fd5b620002f8600480360360a08110156200006357600080fd5b81019080803590602001906401000000008111156200008157600080fd5b8201836020820111156200009457600080fd5b80359060200191846001830284011164010000000083111715620000b757600080fd5b91908080601f016020809104026020016040519081016040528093929190818152602001838380828437600081840152601f19601f820116905080830192505050505050509192919290803590602001906401000000008111156200011b57600080fd5b8201836020820111156200012e57600080fd5b803590602001918460018302840111640100000000831117156200015157600080fd5b91908080601f016020809104026020016040519081016040528093929190818152602001838380828437600081840152601f19601f82011690508083019250505050505050919291929080359060200190640100000000811115620001b557600080fd5b820183602082011115620001c857600080fd5b80359060200191846001830284011164010000000083111715620001eb57600080fd5b91908080601f016020809104026020016040519081016040528093929190818152602001838380828437600081840152601f19601f820116905080830192505050505050509192919290803590602001906401000000008111156200024f57600080fd5b8201836020820111156200026257600080fd5b803590602001918460018302840111640100000000831117156200028557600080fd5b91908080601f016020809104026020016040519081016040528093929190818152602001838380828437600081840152601f19601f820116905080830192505050505050509192919290803573ffffffffffffffffffffffffffffffffffffffff169060200190929190505050620003ac565b005b62000333600480360360408110156200031257600080fd5b810190808035906020019092919080359060200190929190505050620006cc565b6040518080602001828103825283818151815260200191508051906020019060200280838360005b83811015620003785780820151818401526020810190506200035b565b505050509050019250505060405180910390f35b6200039662000863565b6040518082815260200191505060405180910390f35b6000858585858533604051620003c2906200086f565b80806020018060200180602001806020018773ffffffffffffffffffffffffffffffffffffffff1673ffffffffffffffffffffffffffffffffffffffff1681526020018673ffffffffffffffffffffffffffffffffffffffff1673ffffffffffffffffffffffffffffffffffffffff16815260200185810385528b818151815260200191508051906020019080838360005b838110156200047157808201518184015260208101905062000454565b50505050905090810190601f1680156200049f5780820380516001836020036101000a031916815260200191505b5085810384528a818151815260200191508051906020019080838360005b83811015620004da578082015181840152602081019050620004bd565b50505050905090810190601f168015620005085780820380516001836020036101000a031916815260200191505b50858103835289818151815260200191508051906020019080838360005b838110156200054357808201518184015260208101905062000526565b50505050905090810190601f168015620005715780820380516001836020036101000a031916815260200191505b50858103825288818151815260200191508051906020019080838360005b83811015620005ac5780820151818401526020810190506200058f565b50505050905090810190601f168015620005da5780820380516001836020036101000a031916815260200191505b509a5050505050505050505050604051809103906000f08015801562000604573d6000803e3d6000fd5b5090506000819080600181540180825580915050600190039060005260206000200160009091909190916101000a81548173ffffffffffffffffffffffffffffffffffffffff021916908373ffffffffffffffffffffffffffffffffffffffff1602179055503373ffffffffffffffffffffffffffffffffffffffff168173ffffffffffffffffffffffffffffffffffffffff167fa2398daac0c8053a1e3c0280916c2ec6bc884f0959c27e639a4db829b7eabfb160405160405180910390a3505050505050565b6060620006d862000863565b8211156200074e576040517f08c379a00000000000000000000000000000000000000000000000000000000081526004018080602001828103825260148152602001807f6f6666736574206f7574206f6620626f756e647300000000000000000000000081525060200191505060405180910390fd5b6000826200075b62000863565b0390508381106200076d57836200076f565b805b9050601481106200078257601462000784565b805b905080604051908082528060200260200182016040528015620007b65781602001602082028038833980820191505090505b50915060008090505b818110156200085857600081850181548110620007d857fe5b9060005260206000200160009054906101000a900473ffffffffffffffffffffffffffffffffffffffff168382815181106200081057fe5b602002602001019073ffffffffffffffffffffffffffffffffffffffff16908173ffffffffffffffffffffffffffffffffffffffff16815250508080600101915050620007bf565b508191505092915050565b60008080549050905090565b611a6d806200087e8339019056fe60806040523480156200001157600080fd5b5060405162001a6d38038062001a6d833981810160405260c08110156200003757600080fd5b81019080805160405193929190846401000000008211156200005857600080fd5b838201915060208201858111156200006f57600080fd5b82518660018202830111640100000000821117156200008d57600080fd5b8083526020830192505050908051906020019080838360005b83811015620000c3578082015181840152602081019050620000a6565b50505050905090810190601f168015620000f15780820380516001836020036101000a031916815260200191505b50604052602001805160405193929190846401000000008211156200011557600080fd5b838201915060208201858111156200012c57600080fd5b82518660018202830111640100000000821117156200014a57600080fd5b8083526020830192505050908051906020019080838360005b838110156200018057808201518184015260208101905062000163565b50505050905090810190601f168015620001ae5780820380516001836020036101000a031916815260200191505b5060405260200180516040519392919084640100000000821115620001d257600080fd5b83820191506020820185811115620001e957600080fd5b82518660018202830111640100000000821117156200020757600080fd5b8083526020830192505050908051906020019080838360005b838110156200023d57808201518184015260208101905062000220565b50505050905090810190601f1680156200026b5780820380516001836020036101000a031916815260200191505b50604052602001805160405193929190846401000000008211156200028f57600080fd5b83820191506020820185811115620002a657600080fd5b8251866001820283011164010000000082111715620002c457600080fd5b8083526020830192505050908051906020019080838360005b83811015620002fa578082015181840152602081019050620002dd565b50505050905090810190601f168015620003285780820380516001836020036101000a031916815260200191505b506040526020018051906020019092919080519060200190929190505050600062000358620004b860201b60201c565b9050806000806101000a81548173ffffffffffffffffffffffffffffffffffffffff021916908373ffffffffffffffffffffffffffffffffffffffff1602179055508073ffffffffffffffffffffffffffffffffffffffff16600073ffffffffffffffffffffffffffffffffffffffff167f8be0079c531659141344cd1fd0a4f28419497f9722a3daafe3b4186f6b6457e060405160405180910390a35085600290805190602001906200040e929190620006d8565b50846003908051906020019062000427929190620006d8565b50836004908051906020019062000440929190620006d8565b50826005908051906020019062000459929190620006d8565b5081600660006101000a81548173ffffffffffffffffffffffffffffffffffffffff021916908373ffffffffffffffffffffffffffffffffffffffff160217905550620004ac81620004c060201b60201c565b50505050505062000787565b600033905090565b620004d0620004b860201b60201c565b73ffffffffffffffffffffffffffffffffffffffff166000809054906101000a900473ffffffffffffffffffffffffffffffffffffffff1673ffffffffffffffffffffffffffffffffffffffff161462000592576040517f08c379a00000000000000000000000000000000000000000000000000000000081526004018080602001828103825260208152602001807f4f776e61626c653a2063616c6c6572206973206e6f7420746865206f776e657281525060200191505060405180910390fd5b600073ffffffffffffffffffffffffffffffffffffffff168173ffffffffffffffffffffffffffffffffffffffff1614156200061a576040517f08c379a000000000000000000000000000000000000000000000000000000000815260040180806020018281038252602681526020018062001a476026913960400191505060405180910390fd5b8073ffffffffffffffffffffffffffffffffffffffff166000809054906101000a900473ffffffffffffffffffffffffffffffffffffffff1673ffffffffffffffffffffffffffffffffffffffff167f8be0079c531659141344cd1fd0a4f28419497f9722a3daafe3b4186f6b6457e060405160405180910390a3806000806101000a81548173ffffffffffffffffffffffffffffffffffffffff021916908373ffffffffffffffffffffffffffffffffffffffff16021790555050565b828054600181600116156101000203166002900490600052602060002090601f016020900481019282601f106200071b57805160ff19168380011785556200074c565b828001600101855582156200074c579182015b828111156200074b5782518255916020019190600101906200072e565b5b5090506200075b91906200075f565b5090565b6200078491905b808211156200078057600081600090555060010162000766565b5090565b90565b6112b080620007976000396000f3fe6080604052600436106100ec5760003560e01c80635600f04f1161008a578063b90497e011610059578063b90497e01461050d578063de2ed8931461059d578063ed88c68e146105c8578063f2fde38b146105d2576100ed565b80635600f04f1461037f578063715018a61461040f5780637284e416146104265780638da5cb5b146104b6576100ed565b80631c31f710116100c65780631c31f710146102955780631f522595146102e657806338af3eed146103115780633ccfd60b14610368576100ed565b80630180b97c1461012657806306fdde03146101515780631a57f7b4146101e1576100ed565b5b6101023460075461062390919063ffffffff16565b60078190555061011e600160085461062390919063ffffffff16565b600881905550005b34801561013257600080fd5b5061013b6106ab565b6040518082815260200191505060405180910390f35b34801561015d57600080fd5b506101666106f5565b6040518080602001828103825283818151815260200191508051906020019080838360005b838110156101a657808201518184015260208101905061018b565b50505050905090810190601f1680156101d35780820380516001836020036101000a031916815260200191505b509250505060405180910390f35b3480156101ed57600080fd5b506101f6610793565b604051808060200180602001838103835285818151815260200191508051906020019060200280838360005b8381101561023d578082015181840152602081019050610222565b50505050905001838103825284818151815260200191508051906020019060200280838360005b8381101561027f578082015181840152602081019050610264565b5050505090500194505050505060405180910390f35b3480156102a157600080fd5b506102e4600480360360208110156102b857600080fd5b81019080803573ffffffffffffffffffffffffffffffffffffffff1690602001909291905050506108c4565b005b3480156102f257600080fd5b506102fb6109d1565b6040518082815260200191505060405180910390f35b34801561031d57600080fd5b506103266109d7565b604051808273ffffffffffffffffffffffffffffffffffffffff1673ffffffffffffffffffffffffffffffffffffffff16815260200191505060405180910390f35b34801561037457600080fd5b5061037d6109fd565b005b34801561038b57600080fd5b50610394610b6e565b6040518080602001828103825283818151815260200191508051906020019080838360005b838110156103d45780820151818401526020810190506103b9565b50505050905090810190601f1680156104015780820380516001836020036101000a031916815260200191505b509250505060405180910390f35b34801561041b57600080fd5b50610424610c0c565b005b34801561043257600080fd5b5061043b610d94565b6040518080602001828103825283818151815260200191508051906020019080838360005b8381101561047b578082015181840152602081019050610460565b50505050905090810190601f1680156104a85780820380516001836020036101000a031916815260200191505b509250505060405180910390f35b3480156104c257600080fd5b506104cb610e32565b604051808273ffffffffffffffffffffffffffffffffffffffff1673ffffffffffffffffffffffffffffffffffffffff16815260200191505060405180910390f35b34801561051957600080fd5b50610522610e5b565b6040518080602001828103825283818151815260200191508051906020019080838360005b83811015610562578082015181840152602081019050610547565b50505050905090810190601f16801561058f5780820380516001836020036101000a031916815260200191505b509250505060405180910390f35b3480156105a957600080fd5b506105b2610ef9565b6040518082815260200191505060405180910390f35b6105d0610eff565b005b3480156105de57600080fd5b50610621600480360360208110156105f557600080fd5b81019080803573ffffffffffffffffffffffffffffffffffffffff169060200190929190505050611025565b005b6000808284019050838110156106a1576040517f08c379a000000000000000000000000000000000000000000000000000000000815260040180806020018281038252601b8152602001807f536166654d6174683a206164646974696f6e206f766572666c6f77000000000081525060200191505060405180910390fd5b8091505092915050565b6000600160003373ffffffffffffffffffffffffffffffffffffffff1673ffffffffffffffffffffffffffffffffffffffff16815260200190815260200160002080549050905090565b60028054600181600116156101000203166002900480601f01602080910402602001604051908101604052809291908181526020018280546001816001161561010002031660029004801561078b5780601f106107605761010080835404028352916020019161078b565b820191906000526020600020905b81548152906001019060200180831161076e57829003601f168201915b505050505081565b60608060006107a06106ab565b9050806040519080825280602002602001820160405280156107d15781602001602082028038833980820191505090505b509250806040519080825280602002602001820160405280156108035781602001602082028038833980820191505090505b50915060008090505b818110156108b8576000600160003373ffffffffffffffffffffffffffffffffffffffff1673ffffffffffffffffffffffffffffffffffffffff168152602001908152602001600020828154811061086057fe5b90600052602060002090600202019050806000015485838151811061088157fe5b602002602001018181525050806001015484838151811061089e57fe5b60200260200101818152505050808060010191505061080c565b50828292509250509091565b6108cc611232565b73ffffffffffffffffffffffffffffffffffffffff166000809054906101000a900473ffffffffffffffffffffffffffffffffffffffff1673ffffffffffffffffffffffffffffffffffffffff161461098d576040517f08c379a00000000000000000000000000000000000000000000000000000000081526004018080602001828103825260208152602001807f4f776e61626c653a2063616c6c6572206973206e6f7420746865206f776e657281525060200191505060405180910390fd5b80600660006101000a81548173ffffffffffffffffffffffffffffffffffffffff021916908373ffffffffffffffffffffffffffffffffffffffff16021790555050565b60085481565b600660009054906101000a900473ffffffffffffffffffffffffffffffffffffffff1681565b610a05611232565b73ffffffffffffffffffffffffffffffffffffffff166000809054906101000a900473ffffffffffffffffffffffffffffffffffffffff1673ffffffffffffffffffffffffffffffffffffffff1614610ac6576040517f08c379a00000000000000000000000000000000000000000000000000000000081526004018080602001828103825260208152602001807f4f776e61626c653a2063616c6c6572206973206e6f7420746865206f776e657281525060200191505060405180910390fd5b6000479050600660009054906101000a900473ffffffffffffffffffffffffffffffffffffffff1673ffffffffffffffffffffffffffffffffffffffff166108fc829081150290604051600060405180830381858888f19350505050158015610b33573d6000803e3d6000fd5b507f5b6b431d4476a211bb7d41c20d1aab9ae2321deee0d20be3d9fc9b1093fa6e3d816040518082815260200191505060405180910390a150565b60038054600181600116156101000203166002900480601f016020809104026020016040519081016040528092919081815260200182805460018160011615610100020316600290048015610c045780601f10610bd957610100808354040283529160200191610c04565b820191906000526020600020905b815481529060010190602001808311610be757829003601f168201915b505050505081565b610c14611232565b73ffffffffffffffffffffffffffffffffffffffff166000809054906101000a900473ffffffffffffffffffffffffffffffffffffffff1673ffffffffffffffffffffffffffffffffffffffff1614610cd5576040517f08c379a00000000000000000000000000000000000000000000000000000000081526004018080602001828103825260208152602001807f4f776e61626c653a2063616c6c6572206973206e6f7420746865206f776e657281525060200191505060405180910390fd5b600073ffffffffffffffffffffffffffffffffffffffff166000809054906101000a900473ffffffffffffffffffffffffffffffffffffffff1673ffffffffffffffffffffffffffffffffffffffff167f8be0079c531659141344cd1fd0a4f28419497f9722a3daafe3b4186f6b6457e060405160405180910390a360008060006101000a81548173ffffffffffffffffffffffffffffffffffffffff021916908373ffffffffffffffffffffffffffffffffffffffff160217905550565b60058054600181600116156101000203166002900480601f016020809104026020016040519081016040528092919081815260200182805460018160011615610100020316600290048015610e2a5780601f10610dff57610100808354040283529160200191610e2a565b820191906000526020600020905b815481529060010190602001808311610e0d57829003601f168201915b505050505081565b60008060009054906101000a900473ffffffffffffffffffffffffffffffffffffffff16905090565b60048054600181600116156101000203166002900480601f016020809104026020016040519081016040528092919081815260200182805460018160011615610100020316600290048015610ef15780601f10610ec657610100808354040283529160200191610ef1565b820191906000526020600020905b815481529060010190602001808311610ed457829003601f168201915b505050505081565b60075481565b610f0761123a565b6040518060400160405280348152602001428152509050600160003373ffffffffffffffffffffffffffffffffffffffff1673ffffffffffffffffffffffffffffffffffffffff16815260200190815260200160002081908060018154018082558091505060019003906000526020600020906002020160009091909190915060008201518160000155602082015181600101555050610fb23460075461062390919063ffffffff16565b600781905550610fce600160085461062390919063ffffffff16565b6008819055503373ffffffffffffffffffffffffffffffffffffffff167f264f630d9efa0d07053a31163641d9fcc0adafc9d9e76f1c37c2ce3a558d2c52346040518082815260200191505060405180910390a250565b61102d611232565b73ffffffffffffffffffffffffffffffffffffffff166000809054906101000a900473ffffffffffffffffffffffffffffffffffffffff1673ffffffffffffffffffffffffffffffffffffffff16146110ee576040517f08c379a00000000000000000000000000000000000000000000000000000000081526004018080602001828103825260208152602001807f4f776e61626c653a2063616c6c6572206973206e6f7420746865206f776e657281525060200191505060405180910390fd5b600073ffffffffffffffffffffffffffffffffffffffff168173ffffffffffffffffffffffffffffffffffffffff161415611174576040517f08c379a00000000000000000000000000000000000000000000000000000000081526004018080602001828103825260268152602001806112556026913960400191505060405180910390fd5b8073ffffffffffffffffffffffffffffffffffffffff166000809054906101000a900473ffffffffffffffffffffffffffffffffffffffff1673ffffffffffffffffffffffffffffffffffffffff167f8be0079c531659141344cd1fd0a4f28419497f9722a3daafe3b4186f6b6457e060405160405180910390a3806000806101000a81548173ffffffffffffffffffffffffffffffffffffffff021916908373ffffffffffffffffffffffffffffffffffffffff16021790555050565b600033905090565b60405180604001604052806000815260200160008152509056fe4f776e61626c653a206e6577206f776e657220697320746865207a65726f2061646472657373a26469706673582212206d5801e76abaa097396a779bdf248693c755bf66063b2e763286a6169d83ad7564736f6c634300060000334f776e61626c653a206e6577206f776e657220697320746865207a65726f2061646472657373a2646970667358221220359352765fe7e63ae97008906fe7ea31d2f75d60a7ce5f75ebf8a47c790a7d9964736f6c63430006000033",
  "source": "pragma solidity >=0.6.0 <0.7.0;\n\nimport \"./Fundraiser.sol\";\n\ncontract FundraiserFactory {\n    Fundraiser[]  private _fundraisers;\n\n    uint256 constant maxLimit = 20;\n\n    event FundraiserCreated(Fundraiser indexed fundraiser, address indexed owner);\n\n    function fundraisers(uint256 limit, uint256 offset)\n    public\n    view\n    returns (Fundraiser[] memory fundraisers)\n    {\n        require(offset <= fundraisersCount(), \"offset out of bounds\");\n        uint256 size = fundraisersCount() - offset;\n        size = size < limit ? size : limit;\n        size = size < maxLimit ? size : maxLimit;\n        fundraisers = new Fundraiser[](size);\n\n        for (uint256 i = 0; i < size; i++) {\n            fundraisers[i] = _fundraisers[offset + i];\n        }\n\n        return fundraisers;\n    }\n\n    function fundraisersCount() public view returns (uint256) {\n        return _fundraisers.length;\n    }\n\n    function createFundraiser(\n        string memory name,\n        string memory url,\n        string memory imageURL,\n        string memory description,\n        address payable beneficiary\n    ) public {\n        Fundraiser fundraiser = new Fundraiser(\n            name,\n            url,\n            imageURL,\n            description,\n            beneficiary,\n            msg.sender\n        );\n        _fundraisers.push(fundraiser);\n        emit FundraiserCreated(fundraiser, msg.sender);\n    }\n}\n",
  "sourcePath": "/Users/noguchi_tsukasa/.ghq/github.com/wild-mouse/practicing-Hands-On-Smart-Contract-Development-with-Solidity-and-Ethereum/fundraiser-dapp/contracts/FundraiserFactory.sol",
  "compiler": {
    "name": "solc",
    "version": "0.6.0+commit.26b70077.Emscripten.clang"
  },
  "schemaVersion": "3.2.0",
  "updatedAt": "2020-07-13T00:40:57.575Z",
  "networkType": "ethereum",
  "devdoc": {
    "methods": {}
  },
  "userdoc": {
    "methods": {}
  }
}